{
  "contractName": "Land",
  "abi": [
    {
      "inputs": [],
      "stateMutability": "nonpayable",
      "type": "constructor"
    },
    {
      "inputs": [
        {
          "internalType": "address",
          "name": "",
          "type": "address"
        }
      ],
      "name": "InspectorMapping",
      "outputs": [
        {
          "internalType": "uint256",
          "name": "id",
          "type": "uint256"
        },
        {
          "internalType": "address",
          "name": "_addr",
          "type": "address"
        },
        {
          "internalType": "string",
          "name": "name",
          "type": "string"
        },
        {
          "internalType": "uint256",
          "name": "age",
          "type": "uint256"
        },
        {
          "internalType": "string",
          "name": "designation",
          "type": "string"
        },
        {
          "internalType": "string",
          "name": "city",
          "type": "string"
        }
      ],
      "stateMutability": "view",
      "type": "function",
      "constant": true
    },
    {
      "inputs": [
        {
          "internalType": "uint256",
          "name": "",
          "type": "uint256"
        }
      ],
      "name": "LandRequestMapping",
      "outputs": [
        {
          "internalType": "uint256",
          "name": "reqId",
          "type": "uint256"
        },
        {
          "internalType": "address payable",
          "name": "sellerId",
          "type": "address"
        },
        {
          "internalType": "address payable",
          "name": "buyerId",
          "type": "address"
        },
        {
          "internalType": "uint256",
          "name": "landId",
          "type": "uint256"
        },
        {
          "internalType": "enum Land.reqStatus",
          "name": "requestStatus",
          "type": "uint8"
        },
        {
          "internalType": "bool",
          "name": "isPaymentDone",
          "type": "bool"
        }
      ],
      "stateMutability": "view",
      "type": "function",
      "constant": true
    },
    {
      "inputs": [
        {
          "internalType": "address",
          "name": "",
          "type": "address"
        }
      ],
      "name": "UserMapping",
      "outputs": [
        {
          "internalType": "address",
          "name": "id",
          "type": "address"
        },
        {
          "internalType": "string",
          "name": "name",
          "type": "string"
        },
        {
          "internalType": "uint256",
          "name": "age",
          "type": "uint256"
        },
        {
          "internalType": "string",
          "name": "city",
          "type": "string"
        },
        {
          "internalType": "string",
          "name": "aadharNumber",
          "type": "string"
        },
        {
          "internalType": "string",
          "name": "panNumber",
          "type": "string"
        },
        {
          "internalType": "string",
          "name": "document",
          "type": "string"
        },
        {
          "internalType": "string",
          "name": "email",
          "type": "string"
        },
        {
          "internalType": "bool",
          "name": "isUserVerified",
          "type": "bool"
        }
      ],
      "stateMutability": "view",
      "type": "function",
      "constant": true
    },
    {
      "inputs": [],
      "name": "documentId",
      "outputs": [
        {
          "internalType": "uint256",
          "name": "",
          "type": "uint256"
        }
      ],
      "stateMutability": "view",
      "type": "function",
      "constant": true
    },
    {
      "inputs": [
        {
          "internalType": "uint256",
          "name": "",
          "type": "uint256"
        }
      ],
      "name": "lands",
      "outputs": [
        {
          "internalType": "uint256",
          "name": "id",
          "type": "uint256"
        },
        {
          "internalType": "uint256",
          "name": "area",
          "type": "uint256"
        },
        {
          "internalType": "string",
          "name": "landAddress",
          "type": "string"
        },
        {
          "internalType": "uint256",
          "name": "landPrice",
          "type": "uint256"
        },
        {
          "internalType": "string",
          "name": "allLatitudeLongitude",
          "type": "string"
        },
        {
          "internalType": "uint256",
          "name": "propertyPID",
          "type": "uint256"
        },
        {
          "internalType": "string",
          "name": "physicalSurveyNumber",
          "type": "string"
        },
        {
          "internalType": "string",
          "name": "document",
          "type": "string"
        },
        {
          "internalType": "bool",
          "name": "isforSell",
          "type": "bool"
        },
        {
          "internalType": "address payable",
          "name": "ownerAddress",
          "type": "address"
        },
        {
          "internalType": "bool",
          "name": "isLandVerified",
          "type": "bool"
        }
      ],
      "stateMutability": "view",
      "type": "function",
      "constant": true
    },
    {
      "inputs": [],
      "name": "landsCount",
      "outputs": [
        {
          "internalType": "uint256",
          "name": "",
          "type": "uint256"
        }
      ],
      "stateMutability": "view",
      "type": "function",
      "constant": true
    },
    {
      "inputs": [],
      "name": "userCount",
      "outputs": [
        {
          "internalType": "uint256",
          "name": "",
          "type": "uint256"
        }
      ],
      "stateMutability": "view",
      "type": "function",
      "constant": true
    },
    {
      "inputs": [
        {
          "internalType": "address",
          "name": "_addr",
          "type": "address"
        }
      ],
      "name": "isContractOwner",
      "outputs": [
        {
          "internalType": "bool",
          "name": "",
          "type": "bool"
        }
      ],
      "stateMutability": "view",
      "type": "function",
      "constant": true
    },
    {
      "inputs": [
        {
          "internalType": "address",
          "name": "_addr",
          "type": "address"
        }
      ],
      "name": "changeContractOwner",
      "outputs": [],
      "stateMutability": "nonpayable",
      "type": "function"
    },
    {
      "inputs": [
        {
          "internalType": "address",
          "name": "_addr",
          "type": "address"
        },
        {
          "internalType": "string",
          "name": "_name",
          "type": "string"
        },
        {
          "internalType": "uint256",
          "name": "_age",
          "type": "uint256"
        },
        {
          "internalType": "string",
          "name": "_designation",
          "type": "string"
        },
        {
          "internalType": "string",
          "name": "_city",
          "type": "string"
        }
      ],
      "name": "addLandInspector",
      "outputs": [
        {
          "internalType": "bool",
          "name": "",
          "type": "bool"
        }
      ],
      "stateMutability": "nonpayable",
      "type": "function"
    },
    {
      "inputs": [],
      "name": "ReturnAllLandIncpectorList",
      "outputs": [
        {
          "internalType": "address[]",
          "name": "",
          "type": "address[]"
        }
      ],
      "stateMutability": "view",
      "type": "function",
      "constant": true
    },
    {
      "inputs": [
        {
          "internalType": "address",
          "name": "_addr",
          "type": "address"
        }
      ],
      "name": "removeLandInspector",
      "outputs": [],
      "stateMutability": "nonpayable",
      "type": "function"
    },
    {
      "inputs": [
        {
          "internalType": "address",
          "name": "_id",
          "type": "address"
        }
      ],
      "name": "isLandInspector",
      "outputs": [
        {
          "internalType": "bool",
          "name": "",
          "type": "bool"
        }
      ],
      "stateMutability": "view",
      "type": "function",
      "constant": true
    },
    {
      "inputs": [
        {
          "internalType": "address",
          "name": "_addr",
          "type": "address"
        }
      ],
      "name": "isUserRegistered",
      "outputs": [
        {
          "internalType": "bool",
          "name": "",
          "type": "bool"
        }
      ],
      "stateMutability": "view",
      "type": "function",
      "constant": true
    },
    {
      "inputs": [
        {
          "internalType": "string",
          "name": "_name",
          "type": "string"
        },
        {
          "internalType": "uint256",
          "name": "_age",
          "type": "uint256"
        },
        {
          "internalType": "string",
          "name": "_city",
          "type": "string"
        },
        {
          "internalType": "string",
          "name": "_aadharNumber",
          "type": "string"
        },
        {
          "internalType": "string",
          "name": "_panNumber",
          "type": "string"
        },
        {
          "internalType": "string",
          "name": "_document",
          "type": "string"
        },
        {
          "internalType": "string",
          "name": "_email",
          "type": "string"
        }
      ],
      "name": "registerUser",
      "outputs": [],
      "stateMutability": "nonpayable",
      "type": "function"
    },
    {
      "inputs": [
        {
          "internalType": "address",
          "name": "_userId",
          "type": "address"
        }
      ],
      "name": "verifyUser",
      "outputs": [],
      "stateMutability": "nonpayable",
      "type": "function"
    },
    {
      "inputs": [
        {
          "internalType": "address",
          "name": "id",
          "type": "address"
        }
      ],
      "name": "isUserVerified",
      "outputs": [
        {
          "internalType": "bool",
          "name": "",
          "type": "bool"
        }
      ],
      "stateMutability": "view",
      "type": "function",
      "constant": true
    },
    {
      "inputs": [],
      "name": "ReturnAllUserList",
      "outputs": [
        {
          "internalType": "address[]",
          "name": "",
          "type": "address[]"
        }
      ],
      "stateMutability": "view",
      "type": "function",
      "constant": true
    },
    {
      "inputs": [
        {
          "internalType": "uint256",
          "name": "_area",
          "type": "uint256"
        },
        {
          "internalType": "string",
          "name": "_address",
          "type": "string"
        },
        {
          "internalType": "uint256",
          "name": "landPrice",
          "type": "uint256"
        },
        {
          "internalType": "string",
          "name": "_allLatiLongi",
          "type": "string"
        },
        {
          "internalType": "uint256",
          "name": "_propertyPID",
          "type": "uint256"
        },
        {
          "internalType": "string",
          "name": "_surveyNum",
          "type": "string"
        },
        {
          "internalType": "string",
          "name": "_document",
          "type": "string"
        }
      ],
      "name": "addLand",
      "outputs": [],
      "stateMutability": "nonpayable",
      "type": "function"
    },
    {
      "inputs": [],
      "name": "ReturnAllLandList",
      "outputs": [
        {
          "internalType": "uint256[]",
          "name": "",
          "type": "uint256[]"
        }
      ],
      "stateMutability": "view",
      "type": "function",
      "constant": true
    },
    {
      "inputs": [
        {
          "internalType": "uint256",
          "name": "_id",
          "type": "uint256"
        }
      ],
      "name": "verifyLand",
      "outputs": [],
      "stateMutability": "nonpayable",
      "type": "function"
    },
    {
      "inputs": [
        {
          "internalType": "uint256",
          "name": "id",
          "type": "uint256"
        }
      ],
      "name": "isLandVerified",
      "outputs": [
        {
          "internalType": "bool",
          "name": "",
          "type": "bool"
        }
      ],
      "stateMutability": "view",
      "type": "function",
      "constant": true
    },
    {
      "inputs": [
        {
          "internalType": "address",
          "name": "id",
          "type": "address"
        }
      ],
      "name": "myAllLands",
      "outputs": [
        {
          "internalType": "uint256[]",
          "name": "",
          "type": "uint256[]"
        }
      ],
      "stateMutability": "view",
      "type": "function",
      "constant": true
    },
    {
      "inputs": [
        {
          "internalType": "uint256",
          "name": "id",
          "type": "uint256"
        }
      ],
      "name": "makeItforSell",
      "outputs": [],
      "stateMutability": "nonpayable",
      "type": "function"
    },
    {
      "inputs": [
        {
          "internalType": "uint256",
          "name": "_landId",
          "type": "uint256"
        }
      ],
      "name": "requestforBuy",
      "outputs": [],
      "stateMutability": "nonpayable",
      "type": "function"
    },
    {
      "inputs": [],
      "name": "myReceivedLandRequests",
      "outputs": [
        {
          "internalType": "uint256[]",
          "name": "",
          "type": "uint256[]"
        }
      ],
      "stateMutability": "view",
      "type": "function",
      "constant": true
    },
    {
      "inputs": [],
      "name": "mySentLandRequests",
      "outputs": [
        {
          "internalType": "uint256[]",
          "name": "",
          "type": "uint256[]"
        }
      ],
      "stateMutability": "view",
      "type": "function",
      "constant": true
    },
    {
      "inputs": [
        {
          "internalType": "uint256",
          "name": "_requestId",
          "type": "uint256"
        }
      ],
      "name": "acceptRequest",
      "outputs": [],
      "stateMutability": "nonpayable",
      "type": "function"
    },
    {
      "inputs": [
        {
          "internalType": "uint256",
          "name": "_requestId",
          "type": "uint256"
        }
      ],
      "name": "rejectRequest",
      "outputs": [],
      "stateMutability": "nonpayable",
      "type": "function"
    },
    {
      "inputs": [
        {
          "internalType": "uint256",
          "name": "id",
          "type": "uint256"
        }
      ],
      "name": "requesteStatus",
      "outputs": [
        {
          "internalType": "bool",
          "name": "",
          "type": "bool"
        }
      ],
      "stateMutability": "view",
      "type": "function",
      "constant": true
    },
    {
      "inputs": [
        {
          "internalType": "uint256",
          "name": "id",
          "type": "uint256"
        }
      ],
      "name": "landPrice",
      "outputs": [
        {
          "internalType": "uint256",
          "name": "",
          "type": "uint256"
        }
      ],
      "stateMutability": "view",
      "type": "function",
      "constant": true
    },
    {
      "inputs": [
        {
          "internalType": "uint256",
          "name": "id",
          "type": "uint256"
        }
      ],
      "name": "propertytax",
      "outputs": [
        {
          "internalType": "uint256",
          "name": "",
          "type": "uint256"
        }
      ],
      "stateMutability": "view",
      "type": "function",
      "constant": true
    },
    {
      "inputs": [
        {
          "internalType": "uint256",
          "name": "_requestId",
          "type": "uint256"
        }
      ],
      "name": "makePayment",
      "outputs": [],
      "stateMutability": "payable",
      "type": "function",
      "payable": true
    },
    {
      "inputs": [],
      "name": "returnPaymentDoneList",
      "outputs": [
        {
          "internalType": "uint256[]",
          "name": "",
          "type": "uint256[]"
        }
      ],
      "stateMutability": "view",
      "type": "function",
      "constant": true
    },
    {
      "inputs": [
        {
          "internalType": "uint256",
          "name": "_requestId",
          "type": "uint256"
        },
        {
          "internalType": "string",
          "name": "documentUrl",
          "type": "string"
        }
      ],
      "name": "transferOwnership",
      "outputs": [
        {
          "internalType": "bool",
          "name": "",
          "type": "bool"
        }
      ],
      "stateMutability": "nonpayable",
      "type": "function"
    },
    {
      "inputs": [
        {
          "internalType": "address payable",
          "name": "_reveiver",
          "type": "address"
        }
      ],
      "name": "makePaymentTestFun",
      "outputs": [],
      "stateMutability": "payable",
      "type": "function",
      "payable": true
    }
  ],
  "bytecode": "0x608060405234801561001057600080fd5b50336000806101000a81548173ffffffffffffffffffffffffffffffffffffffff021916908373ffffffffffffffffffffffffffffffffffffffff16021790555061478c806100606000396000f3fe60806040526004361061020f5760003560e01c8063a846fc8f11610118578063d61ff68c116100a0578063e165af871161006f578063e165af87146114f5578063e261f1e51461155c578063edfbe2471461179f578063f9c43bdf14611b64578063fa02454914611b9f5761020f565b8063d61ff68c146110db578063d72ca9ec146113ee578063d8513de41461143d578063de1176881461148e5761020f565b8063c6dcdc37116100e7578063c6dcdc3714610aad578063ccfdc19b14610ce3578063d196ebf214610f8e578063d251839b14611034578063d3b368c0146110a05761020f565b8063a846fc8f146108f4578063ace417e014610960578063b10a30ed146109c7578063c26e11eb14610a725761020f565b80635114cb521161019b5780636e494d6b1161016a5780636e494d6b146107795780637517e00f146107c857806378f7c83f14610819578063995a8d96146108445780639c32e3b4146108885761020f565b80635114cb52146104c1578063553a998d146104ef57806364efa0021461055b5780636cbf6cf8146107285761020f565b80632d7788db116101e25780632d7788db1461033d5780633ead67b514610378578063499701b2146103c95780634ba1f098146104355780634d813120146104705761020f565b806307973ccf14610214578063163f75221461023f5780631c9afd0f146102a657806323393d77146102d1575b600080fd5b34801561022057600080fd5b50610229611c87565b6040518082815260200191505060405180910390f35b34801561024b57600080fd5b5061028e6004803603602081101561026257600080fd5b81019080803573ffffffffffffffffffffffffffffffffffffffff169060200190929190505050611c8d565b60405180821515815260200191505060405180910390f35b3480156102b257600080fd5b506102bb611cf4565b6040518082815260200191505060405180910390f35b3480156102dd57600080fd5b506102e6611cfa565b6040518080602001828103825283818151815260200191508051906020019060200280838360005b8381101561032957808201518184015260208101905061030e565b505050509050019250505060405180910390f35b34801561034957600080fd5b506103766004803603602081101561036057600080fd5b8101908080359060200190929190505050611d64565b005b34801561038457600080fd5b506103c76004803603602081101561039b57600080fd5b81019080803573ffffffffffffffffffffffffffffffffffffffff169060200190929190505050611e0d565b005b3480156103d557600080fd5b506103de611f11565b6040518080602001828103825283818151815260200191508051906020019060200280838360005b83811015610421578082015181840152602081019050610406565b505050509050019250505060405180910390f35b34801561044157600080fd5b5061046e6004803603602081101561045857600080fd5b8101908080359060200190929190505050611fa6565b005b34801561047c57600080fd5b506104bf6004803603602081101561049357600080fd5b81019080803573ffffffffffffffffffffffffffffffffffffffff16906020019092919050505061204f565b005b6104ed600480360360208110156104d757600080fd5b81019080803590602001909291905050506120bf565b005b3480156104fb57600080fd5b506105046122aa565b6040518080602001828103825283818151815260200191508051906020019060200280838360005b8381101561054757808201518184015260208101905061052c565b505050509050019250505060405180910390f35b34801561056757600080fd5b506105aa6004803603602081101561057e57600080fd5b81019080803573ffffffffffffffffffffffffffffffffffffffff16906020019092919050505061234a565b604051808781526020018673ffffffffffffffffffffffffffffffffffffffff168152602001806020018581526020018060200180602001848103845288818151815260200191508051906020019080838360005b8381101561061a5780820151818401526020810190506105ff565b50505050905090810190601f1680156106475780820380516001836020036101000a031916815260200191505b50848103835286818151815260200191508051906020019080838360005b83811015610680578082015181840152602081019050610665565b50505050905090810190601f1680156106ad5780820380516001836020036101000a031916815260200191505b50848103825285818151815260200191508051906020019080838360005b838110156106e65780820151818401526020810190506106cb565b50505050905090810190601f1680156107135780820380516001836020036101000a031916815260200191505b50995050505050505050505060405180910390f35b34801561073457600080fd5b506107616004803603602081101561074b57600080fd5b810190808035906020019092919050505061256e565b60405180821515815260200191505060405180910390f35b34801561078557600080fd5b506107b26004803603602081101561079c57600080fd5b810190808035906020019092919050505061259b565b6040518082815260200191505060405180910390f35b3480156107d457600080fd5b50610817600480360360208110156107eb57600080fd5b81019080803573ffffffffffffffffffffffffffffffffffffffff1690602001909291905050506125c8565b005b34801561082557600080fd5b5061082e612961565b6040518082815260200191505060405180910390f35b6108866004803603602081101561085a57600080fd5b81019080803573ffffffffffffffffffffffffffffffffffffffff169060200190929190505050612967565b005b34801561089457600080fd5b5061089d6129b1565b6040518080602001828103825283818151815260200191508051906020019060200280838360005b838110156108e05780820151818401526020810190506108c5565b505050509050019250505060405180910390f35b34801561090057600080fd5b50610909612a46565b6040518080602001828103825283818151815260200191508051906020019060200280838360005b8381101561094c578082015181840152602081019050610931565b505050509050019250505060405180910390f35b34801561096c57600080fd5b506109af6004803603602081101561098357600080fd5b81019080803573ffffffffffffffffffffffffffffffffffffffff169060200190929190505050612ab0565b60405180821515815260200191505060405180910390f35b3480156109d357600080fd5b50610a00600480360360208110156109ea57600080fd5b8101908080359060200190929190505050612b09565b604051808781526020018673ffffffffffffffffffffffffffffffffffffffff1681526020018573ffffffffffffffffffffffffffffffffffffffff168152602001848152602001836004811115610a5457fe5b81526020018215158152602001965050505050505060405180910390f35b348015610a7e57600080fd5b50610aab60048036036020811015610a9557600080fd5b8101908080359060200190929190505050612b9f565b005b348015610ab957600080fd5b50610ccb600480360360a0811015610ad057600080fd5b81019080803573ffffffffffffffffffffffffffffffffffffffff16906020019092919080359060200190640100000000811115610b0d57600080fd5b820183602082011115610b1f57600080fd5b80359060200191846001830284011164010000000083111715610b4157600080fd5b91908080601f016020809104026020016040519081016040528093929190818152602001838380828437600081840152601f19601f8201169050808301925050505050505091929192908035906020019092919080359060200190640100000000811115610bae57600080fd5b820183602082011115610bc057600080fd5b80359060200191846001830284011164010000000083111715610be257600080fd5b91908080601f016020809104026020016040519081016040528093929190818152602001838380828437600081840152601f19601f82011690508083019250505050505050919291929080359060200190640100000000811115610c4557600080fd5b820183602082011115610c5757600080fd5b80359060200191846001830284011164010000000083111715610c7957600080fd5b91908080601f016020809104026020016040519081016040528093929190818152602001838380828437600081840152601f19601f820116905080830192505050505050509192919290505050612c3f565b60405180821515815260200191505060405180910390f35b348015610cef57600080fd5b50610f8c600480360360e0811015610d0657600080fd5b810190808035906020019092919080359060200190640100000000811115610d2d57600080fd5b820183602082011115610d3f57600080fd5b80359060200191846001830284011164010000000083111715610d6157600080fd5b91908080601f016020809104026020016040519081016040528093929190818152602001838380828437600081840152601f19601f8201169050808301925050505050505091929192908035906020019092919080359060200190640100000000811115610dce57600080fd5b820183602082011115610de057600080fd5b80359060200191846001830284011164010000000083111715610e0257600080fd5b91908080601f016020809104026020016040519081016040528093929190818152602001838380828437600081840152601f19601f8201169050808301925050505050505091929192908035906020019092919080359060200190640100000000811115610e6f57600080fd5b820183602082011115610e8157600080fd5b80359060200191846001830284011164010000000083111715610ea357600080fd5b91908080601f016020809104026020016040519081016040528093929190818152602001838380828437600081840152601f19601f82011690508083019250505050505050919291929080359060200190640100000000811115610f0657600080fd5b820183602082011115610f1857600080fd5b80359060200191846001830284011164010000000083111715610f3a57600080fd5b91908080601f016020809104026020016040519081016040528093929190818152602001838380828437600081840152601f19601f820116905080830192505050505050509192919290505050612f09565b005b348015610f9a57600080fd5b50610fdd60048036036020811015610fb157600080fd5b81019080803573ffffffffffffffffffffffffffffffffffffffff169060200190929190505050613183565b6040518080602001828103825283818151815260200191508051906020019060200280838360005b83811015611020578082015181840152602081019050611005565b505050509050019250505060405180910390f35b34801561104057600080fd5b5061104961321a565b6040518080602001828103825283818151815260200191508051906020019060200280838360005b8381101561108c578082015181840152602081019050611071565b505050509050019250505060405180910390f35b3480156110ac57600080fd5b506110d9600480360360208110156110c357600080fd5b81019080803590602001909291905050506132ba565b005b3480156110e757600080fd5b5061112a600480360360208110156110fe57600080fd5b81019080803573ffffffffffffffffffffffffffffffffffffffff16906020019092919050505061359b565b604051808a73ffffffffffffffffffffffffffffffffffffffff168152602001806020018981526020018060200180602001806020018060200180602001881515815260200187810387528f818151815260200191508051906020019080838360005b838110156111a857808201518184015260208101905061118d565b50505050905090810190601f1680156111d55780820380516001836020036101000a031916815260200191505b5087810386528d818151815260200191508051906020019080838360005b8381101561120e5780820151818401526020810190506111f3565b50505050905090810190601f16801561123b5780820380516001836020036101000a031916815260200191505b5087810385528c818151815260200191508051906020019080838360005b83811015611274578082015181840152602081019050611259565b50505050905090810190601f1680156112a15780820380516001836020036101000a031916815260200191505b5087810384528b818151815260200191508051906020019080838360005b838110156112da5780820151818401526020810190506112bf565b50505050905090810190601f1680156113075780820380516001836020036101000a031916815260200191505b5087810383528a818151815260200191508051906020019080838360005b83811015611340578082015181840152602081019050611325565b50505050905090810190601f16801561136d5780820380516001836020036101000a031916815260200191505b50878103825289818151815260200191508051906020019080838360005b838110156113a657808201518184015260208101905061138b565b50505050905090810190601f1680156113d35780820380516001836020036101000a031916815260200191505b509f5050505050505050505050505050505060405180910390f35b3480156113fa57600080fd5b506114276004803603602081101561141157600080fd5b81019080803590602001909291905050506139a6565b6040518082815260200191505060405180910390f35b34801561144957600080fd5b506114766004803603602081101561146057600080fd5b81019080803590602001909291905050506139c6565b60405180821515815260200191505060405180910390f35b34801561149a57600080fd5b506114dd600480360360208110156114b157600080fd5b81019080803573ffffffffffffffffffffffffffffffffffffffff1690602001909291905050506139f3565b60405180821515815260200191505060405180910390f35b34801561150157600080fd5b506115446004803603602081101561151857600080fd5b81019080803573ffffffffffffffffffffffffffffffffffffffff169060200190929190505050613a5d565b60405180821515815260200191505060405180910390f35b34801561156857600080fd5b506115956004803603602081101561157f57600080fd5b8101908080359060200190929190505050613ac4565b604051808c81526020018b8152602001806020018a815260200180602001898152602001806020018060200188151581526020018773ffffffffffffffffffffffffffffffffffffffff168152602001861515815260200185810385528e818151815260200191508051906020019080838360005b8381101561162557808201518184015260208101905061160a565b50505050905090810190601f1680156116525780820380516001836020036101000a031916815260200191505b5085810384528c818151815260200191508051906020019080838360005b8381101561168b578082015181840152602081019050611670565b50505050905090810190601f1680156116b85780820380516001836020036101000a031916815260200191505b5085810383528a818151815260200191508051906020019080838360005b838110156116f15780820151818401526020810190506116d6565b50505050905090810190601f16801561171e5780820380516001836020036101000a031916815260200191505b50858103825289818151815260200191508051906020019080838360005b8381101561175757808201518184015260208101905061173c565b50505050905090810190601f1680156117845780820380516001836020036101000a031916815260200191505b509f5050505050505050505050505050505060405180910390f35b3480156117ab57600080fd5b50611b62600480360360e08110156117c257600080fd5b81019080803590602001906401000000008111156117df57600080fd5b8201836020820111156117f157600080fd5b8035906020019184600183028401116401000000008311171561181357600080fd5b91908080601f016020809104026020016040519081016040528093929190818152602001838380828437600081840152601f19601f820116905080830192505050505050509192919290803590602001909291908035906020019064010000000081111561188057600080fd5b82018360208201111561189257600080fd5b803590602001918460018302840111640100000000831117156118b457600080fd5b91908080601f016020809104026020016040519081016040528093929190818152602001838380828437600081840152601f19601f8201169050808301925050505050505091929192908035906020019064010000000081111561191757600080fd5b82018360208201111561192957600080fd5b8035906020019184600183028401116401000000008311171561194b57600080fd5b91908080601f016020809104026020016040519081016040528093929190818152602001838380828437600081840152601f19601f820116905080830192505050505050509192919290803590602001906401000000008111156119ae57600080fd5b8201836020820111156119c057600080fd5b803590602001918460018302840111640100000000831117156119e257600080fd5b91908080601f016020809104026020016040519081016040528093929190818152602001838380828437600081840152601f19601f82011690508083019250505050505050919291929080359060200190640100000000811115611a4557600080fd5b820183602082011115611a5757600080fd5b80359060200191846001830284011164010000000083111715611a7957600080fd5b91908080601f016020809104026020016040519081016040528093929190818152602001838380828437600081840152601f19601f82011690508083019250505050505050919291929080359060200190640100000000811115611adc57600080fd5b820183602082011115611aee57600080fd5b80359060200191846001830284011164010000000083111715611b1057600080fd5b91908080601f016020809104026020016040519081016040528093929190818152602001838380828437600081840152601f19601f820116905080830192505050505050509192919290505050613db8565b005b348015611b7057600080fd5b50611b9d60048036036020811015611b8757600080fd5b8101908080359060200190929190505050614106565b005b348015611bab57600080fd5b50611c6f60048036036040811015611bc257600080fd5b810190808035906020019092919080359060200190640100000000811115611be957600080fd5b820183602082011115611bfb57600080fd5b80359060200191846001830284011164010000000083111715611c1d57600080fd5b91908080601f016020809104026020016040519081016040528093929190818152602001838380828437600081840152601f19601f82011690508083019250505050505050919291929050505061414a565b60405180821515815260200191505060405180910390f35b60025481565b6000600c60008373ffffffffffffffffffffffffffffffffffffffff1673ffffffffffffffffffffffffffffffffffffffff16815260200190815260200160002060009054906101000a900460ff1615611cea5760019050611cef565b600090505b919050565b60035481565b60606012600060018152602001908152602001600020805480602002602001604051908101604052809291908181526020018280548015611d5a57602002820191906000526020600020905b815481526020019060010190808311611d46575b5050505050905090565b3373ffffffffffffffffffffffffffffffffffffffff16600f600083815260200190815260200160002060010160009054906101000a900473ffffffffffffffffffffffffffffffffffffffff1673ffffffffffffffffffffffffffffffffffffffff1614611dd257600080fd5b6002600f600083815260200190815260200160002060040160006101000a81548160ff02191690836004811115611e0557fe5b021790555050565b60008054906101000a900473ffffffffffffffffffffffffffffffffffffffff1673ffffffffffffffffffffffffffffffffffffffff163373ffffffffffffffffffffffffffffffffffffffff1614611ece576040517f08c379a00000000000000000000000000000000000000000000000000000000081526004018080602001828103825260198152602001807f796f7520617265206e6f7420636f6e74726163744f776e65720000000000000081525060200191505060405180910390fd5b806000806101000a81548173ffffffffffffffffffffffffffffffffffffffff021916908373ffffffffffffffffffffffffffffffffffffffff16021790555050565b6060601060003373ffffffffffffffffffffffffffffffffffffffff1673ffffffffffffffffffffffffffffffffffffffff168152602001908152602001600020805480602002602001604051908101604052809291908181526020018280548015611f9c57602002820191906000526020600020905b815481526020019060010190808311611f88575b5050505050905090565b3373ffffffffffffffffffffffffffffffffffffffff16600f600083815260200190815260200160002060010160009054906101000a900473ffffffffffffffffffffffffffffffffffffffff1673ffffffffffffffffffffffffffffffffffffffff161461201457600080fd5b6001600f600083815260200190815260200160002060040160006101000a81548160ff0219169083600481111561204757fe5b021790555050565b61205833613a5d565b61206157600080fd5b6001600960008373ffffffffffffffffffffffffffffffffffffffff1673ffffffffffffffffffffffffffffffffffffffff16815260200190815260200160002060080160006101000a81548160ff02191690831515021790555050565b3373ffffffffffffffffffffffffffffffffffffffff16600f600083815260200190815260200160002060020160009054906101000a900473ffffffffffffffffffffffffffffffffffffffff1673ffffffffffffffffffffffffffffffffffffffff1614801561216957506001600481111561213857fe5b600f600083815260200190815260200160002060040160009054906101000a900460ff16600481111561216757fe5b145b61217257600080fd5b6003600f600083815260200190815260200160002060040160006101000a81548160ff021916908360048111156121a557fe5b0217905550600e6000600f600084815260200190815260200160002060030154815260200190815260200160002060080160019054906101000a900473ffffffffffffffffffffffffffffffffffffffff1673ffffffffffffffffffffffffffffffffffffffff166108fc349081150290604051600060405180830381858888f1935050505015801561223c573d6000803e3d6000fd5b506001600f600083815260200190815260200160002060040160016101000a81548160ff021916908315150217905550601360006001815260200190815260200160002081908060018154018082558091505060019003906000526020600020016000909190919091505550565b6060600b60006001815260200190815260200160002080548060200260200160405190810160405280929190818152602001828054801561234057602002820191906000526020600020905b8160009054906101000a900473ffffffffffffffffffffffffffffffffffffffff1673ffffffffffffffffffffffffffffffffffffffff16815260200190600101908083116122f6575b5050505050905090565b60066020528060005260406000206000915090508060000154908060010160009054906101000a900473ffffffffffffffffffffffffffffffffffffffff1690806002018054600181600116156101000203166002900480601f0160208091040260200160405190810160405280929190818152602001828054600181600116156101000203166002900480156124225780601f106123f757610100808354040283529160200191612422565b820191906000526020600020905b81548152906001019060200180831161240557829003601f168201915b505050505090806003015490806004018054600181600116156101000203166002900480601f0160208091040260200160405190810160405280929190818152602001828054600181600116156101000203166002900480156124c65780601f1061249b576101008083540402835291602001916124c6565b820191906000526020600020905b8154815290600101906020018083116124a957829003601f168201915b505050505090806005018054600181600116156101000203166002900480601f0160208091040260200160405190810160405280929190818152602001828054600181600116156101000203166002900480156125645780601f1061253957610100808354040283529160200191612564565b820191906000526020600020905b81548152906001019060200180831161254757829003601f168201915b5050505050905086565b6000600e600083815260200190815260200160002060080160159054906101000a900460ff169050919050565b600060056001600e60008581526020019081526020016000206003015402816125c057fe5b049050919050565b60008054906101000a900473ffffffffffffffffffffffffffffffffffffffff1673ffffffffffffffffffffffffffffffffffffffff163373ffffffffffffffffffffffffffffffffffffffff1614612689576040517f08c379a00000000000000000000000000000000000000000000000000000000081526004018080602001828103825260198152602001807f596f7520617265206e6f7420636f6e74726163744f776e65720000000000000081525060200191505060405180910390fd5b600860008273ffffffffffffffffffffffffffffffffffffffff1673ffffffffffffffffffffffffffffffffffffffff16815260200190815260200160002060009054906101000a900460ff16612748576040517f08c379a00000000000000000000000000000000000000000000000000000000081526004018080602001828103825260188152602001807f4c616e6420496e73706563746f72206e6f7420666f756e64000000000000000081525060200191505060405180910390fd5b6000600860008373ffffffffffffffffffffffffffffffffffffffff1673ffffffffffffffffffffffffffffffffffffffff16815260200190815260200160002060006101000a81548160ff0219169083151502179055506000600760006001815260200190815260200160002080549050905060005b8181101561295c578273ffffffffffffffffffffffffffffffffffffffff16600760006001815260200190815260200160002082815481106127fd57fe5b9060005260206000200160009054906101000a900473ffffffffffffffffffffffffffffffffffffffff1673ffffffffffffffffffffffffffffffffffffffff16141561294f576007600060018152602001908152602001600020600183038154811061286657fe5b9060005260206000200160009054906101000a900473ffffffffffffffffffffffffffffffffffffffff16600760006001815260200190815260200160002082815481106128b057fe5b9060005260206000200160006101000a81548173ffffffffffffffffffffffffffffffffffffffff021916908373ffffffffffffffffffffffffffffffffffffffff160217905550600760006001815260200190815260200160002080548061291557fe5b6001900381819060005260206000200160006101000a81549073ffffffffffffffffffffffffffffffffffffffff0219169055905561295c565b80806001019150506127bf565b505050565b60045481565b8073ffffffffffffffffffffffffffffffffffffffff166108fc349081150290604051600060405180830381858888f193505050501580156129ad573d6000803e3d6000fd5b5050565b6060601160003373ffffffffffffffffffffffffffffffffffffffff1673ffffffffffffffffffffffffffffffffffffffff168152602001908152602001600020805480602002602001604051908101604052809291908181526020018280548015612a3c57602002820191906000526020600020905b815481526020019060010190808311612a28575b5050505050905090565b60606013600060018152602001908152602001600020805480602002602001604051908101604052809291908181526020018280548015612aa657602002820191906000526020600020905b815481526020019060010190808311612a92575b5050505050905090565b6000600960008373ffffffffffffffffffffffffffffffffffffffff1673ffffffffffffffffffffffffffffffffffffffff16815260200190815260200160002060080160009054906101000a900460ff169050919050565b600f6020528060005260406000206000915090508060000154908060010160009054906101000a900473ffffffffffffffffffffffffffffffffffffffff16908060020160009054906101000a900473ffffffffffffffffffffffffffffffffffffffff16908060030154908060040160009054906101000a900460ff16908060040160019054906101000a900460ff16905086565b3373ffffffffffffffffffffffffffffffffffffffff16600e600083815260200190815260200160002060080160019054906101000a900473ffffffffffffffffffffffffffffffffffffffff1673ffffffffffffffffffffffffffffffffffffffff1614612c0d57600080fd5b6001600e600083815260200190815260200160002060080160006101000a81548160ff02191690831515021790555050565b60003373ffffffffffffffffffffffffffffffffffffffff1660008054906101000a900473ffffffffffffffffffffffffffffffffffffffff1673ffffffffffffffffffffffffffffffffffffffff1614612c9d5760009050612f00565b3373ffffffffffffffffffffffffffffffffffffffff1660008054906101000a900473ffffffffffffffffffffffffffffffffffffffff1673ffffffffffffffffffffffffffffffffffffffff1614612cf557600080fd5b6001600860008873ffffffffffffffffffffffffffffffffffffffff1673ffffffffffffffffffffffffffffffffffffffff16815260200190815260200160002060006101000a81548160ff0219169083151502179055506007600060018152602001908152602001600020869080600181540180825580915050600190039060005260206000200160009091909190916101000a81548173ffffffffffffffffffffffffffffffffffffffff021916908373ffffffffffffffffffffffffffffffffffffffff1602179055506040518060c0016040528060015481526020018773ffffffffffffffffffffffffffffffffffffffff16815260200186815260200185815260200184815260200183815250600660008873ffffffffffffffffffffffffffffffffffffffff1673ffffffffffffffffffffffffffffffffffffffff1681526020019081526020016000206000820151816000015560208201518160010160006101000a81548173ffffffffffffffffffffffffffffffffffffffff021916908373ffffffffffffffffffffffffffffffffffffffff1602179055506040820151816002019080519060200190612eb39291906146b9565b50606082015181600301556080820151816004019080519060200190612eda9291906146b9565b5060a0820151816005019080519060200190612ef79291906146b9565b50905050600190505b95945050505050565b612f1233612ab0565b612f1b57600080fd5b60036000815480929190600101919050555060405180610160016040528060035481526020018881526020018781526020018681526020018581526020018481526020018381526020018281526020016000151581526020013373ffffffffffffffffffffffffffffffffffffffff16815260200160001515815250600e6000600354815260200190815260200160002060008201518160000155602082015181600101556040820151816002019080519060200190612fdc9291906146b9565b506060820151816003015560808201518160040190805190602001906130039291906146b9565b5060a0820151816005015560c082015181600601908051906020019061302a9291906146b9565b5060e08201518160070190805190602001906130479291906146b9565b506101008201518160080160006101000a81548160ff0219169083151502179055506101208201518160080160016101000a81548173ffffffffffffffffffffffffffffffffffffffff021916908373ffffffffffffffffffffffffffffffffffffffff1602179055506101408201518160080160156101000a81548160ff021916908315150217905550905050600d60003373ffffffffffffffffffffffffffffffffffffffff1673ffffffffffffffffffffffffffffffffffffffff16815260200190815260200160002060035490806001815401808255809150506001900390600052602060002001600090919091909150556012600060018152602001908152602001600020600354908060018154018082558091505060019003906000526020600020016000909190919091505550505050505050565b6060600d60008373ffffffffffffffffffffffffffffffffffffffff1673ffffffffffffffffffffffffffffffffffffffff16815260200190815260200160002080548060200260200160405190810160405280929190818152602001828054801561320e57602002820191906000526020600020905b8154815260200190600101908083116131fa575b50505050509050919050565b606060076000600181526020019081526020016000208054806020026020016040519081016040528092919081815260200182805480156132b057602002820191906000526020600020905b8160009054906101000a900473ffffffffffffffffffffffffffffffffffffffff1673ffffffffffffffffffffffffffffffffffffffff1681526020019060010190808311613266575b5050505050905090565b6132c333612ab0565b80156132d457506132d38161256e565b5b6132dd57600080fd5b6005600081548092919060010191905055506040518060c001604052806005548152602001600e600084815260200190815260200160002060080160019054906101000a900473ffffffffffffffffffffffffffffffffffffffff1673ffffffffffffffffffffffffffffffffffffffff1681526020013373ffffffffffffffffffffffffffffffffffffffff1681526020018281526020016000600481111561338357fe5b815260200160001515815250600f600060055481526020019081526020016000206000820151816000015560208201518160010160006101000a81548173ffffffffffffffffffffffffffffffffffffffff021916908373ffffffffffffffffffffffffffffffffffffffff16021790555060408201518160020160006101000a81548173ffffffffffffffffffffffffffffffffffffffff021916908373ffffffffffffffffffffffffffffffffffffffff1602179055506060820151816003015560808201518160040160006101000a81548160ff0219169083600481111561346a57fe5b021790555060a08201518160040160016101000a81548160ff02191690831515021790555090505060106000600e600084815260200190815260200160002060080160019054906101000a900473ffffffffffffffffffffffffffffffffffffffff1673ffffffffffffffffffffffffffffffffffffffff1673ffffffffffffffffffffffffffffffffffffffff1681526020019081526020016000206005549080600181540180825580915050600190039060005260206000200160009091909190915055601160003373ffffffffffffffffffffffffffffffffffffffff1673ffffffffffffffffffffffffffffffffffffffff168152602001908152602001600020600554908060018154018082558091505060019003906000526020600020016000909190919091505550565b60096020528060005260406000206000915090508060000160009054906101000a900473ffffffffffffffffffffffffffffffffffffffff1690806001018054600181600116156101000203166002900480601f01602080910402602001604051908101604052809291908181526020018280546001816001161561010002031660029004801561366d5780601f106136425761010080835404028352916020019161366d565b820191906000526020600020905b81548152906001019060200180831161365057829003601f168201915b505050505090806002015490806003018054600181600116156101000203166002900480601f0160208091040260200160405190810160405280929190818152602001828054600181600116156101000203166002900480156137115780601f106136e657610100808354040283529160200191613711565b820191906000526020600020905b8154815290600101906020018083116136f457829003601f168201915b505050505090806004018054600181600116156101000203166002900480601f0160208091040260200160405190810160405280929190818152602001828054600181600116156101000203166002900480156137af5780601f10613784576101008083540402835291602001916137af565b820191906000526020600020905b81548152906001019060200180831161379257829003601f168201915b505050505090806005018054600181600116156101000203166002900480601f01602080910402602001604051908101604052809291908181526020018280546001816001161561010002031660029004801561384d5780601f106138225761010080835404028352916020019161384d565b820191906000526020600020905b81548152906001019060200180831161383057829003601f168201915b505050505090806006018054600181600116156101000203166002900480601f0160208091040260200160405190810160405280929190818152602001828054600181600116156101000203166002900480156138eb5780601f106138c0576101008083540402835291602001916138eb565b820191906000526020600020905b8154815290600101906020018083116138ce57829003601f168201915b505050505090806007018054600181600116156101000203166002900480601f0160208091040260200160405190810160405280929190818152602001828054600181600116156101000203166002900480156139895780601f1061395e57610100808354040283529160200191613989565b820191906000526020600020905b81548152906001019060200180831161396c57829003601f168201915b5050505050908060080160009054906101000a900460ff16905089565b6000600e6000838152602001908152602001600020600301549050919050565b6000600f600083815260200190815260200160002060040160019054906101000a900460ff169050919050565b60008060009054906101000a900473ffffffffffffffffffffffffffffffffffffffff1673ffffffffffffffffffffffffffffffffffffffff168273ffffffffffffffffffffffffffffffffffffffff161415613a535760019050613a58565b600090505b919050565b6000600860008373ffffffffffffffffffffffffffffffffffffffff1673ffffffffffffffffffffffffffffffffffffffff16815260200190815260200160002060009054906101000a900460ff1615613aba5760019050613abf565b600090505b919050565b600e602052806000526040600020600091509050806000015490806001015490806002018054600181600116156101000203166002900480601f016020809104026020016040519081016040528092919081815260200182805460018160011615610100020316600290048015613b7c5780601f10613b5157610100808354040283529160200191613b7c565b820191906000526020600020905b815481529060010190602001808311613b5f57829003601f168201915b505050505090806003015490806004018054600181600116156101000203166002900480601f016020809104026020016040519081016040528092919081815260200182805460018160011615610100020316600290048015613c205780601f10613bf557610100808354040283529160200191613c20565b820191906000526020600020905b815481529060010190602001808311613c0357829003601f168201915b505050505090806005015490806006018054600181600116156101000203166002900480601f016020809104026020016040519081016040528092919081815260200182805460018160011615610100020316600290048015613cc45780601f10613c9957610100808354040283529160200191613cc4565b820191906000526020600020905b815481529060010190602001808311613ca757829003601f168201915b505050505090806007018054600181600116156101000203166002900480601f016020809104026020016040519081016040528092919081815260200182805460018160011615610100020316600290048015613d625780601f10613d3757610100808354040283529160200191613d62565b820191906000526020600020905b815481529060010190602001808311613d4557829003601f168201915b5050505050908060080160009054906101000a900460ff16908060080160019054906101000a900473ffffffffffffffffffffffffffffffffffffffff16908060080160159054906101000a900460ff1690508b565b600c60003373ffffffffffffffffffffffffffffffffffffffff1673ffffffffffffffffffffffffffffffffffffffff16815260200190815260200160002060009054906101000a900460ff1615613e0f57600080fd5b6001600c60003373ffffffffffffffffffffffffffffffffffffffff1673ffffffffffffffffffffffffffffffffffffffff16815260200190815260200160002060006101000a81548160ff021916908315150217905550600260008154809291906001019190505550600b600060018152602001908152602001600020339080600181540180825580915050600190039060005260206000200160009091909190916101000a81548173ffffffffffffffffffffffffffffffffffffffff021916908373ffffffffffffffffffffffffffffffffffffffff16021790555033600a6000600254815260200190815260200160002060006101000a81548173ffffffffffffffffffffffffffffffffffffffff021916908373ffffffffffffffffffffffffffffffffffffffff1602179055506040518061012001604052803373ffffffffffffffffffffffffffffffffffffffff16815260200188815260200187815260200186815260200185815260200184815260200183815260200182815260200160001515815250600960003373ffffffffffffffffffffffffffffffffffffffff1673ffffffffffffffffffffffffffffffffffffffff16815260200190815260200160002060008201518160000160006101000a81548173ffffffffffffffffffffffffffffffffffffffff021916908373ffffffffffffffffffffffffffffffffffffffff160217905550602082015181600101908051906020019061403d9291906146b9565b506040820151816002015560608201518160030190805190602001906140649291906146b9565b5060808201518160040190805190602001906140819291906146b9565b5060a082015181600501908051906020019061409e9291906146b9565b5060c08201518160060190805190602001906140bb9291906146b9565b5060e08201518160070190805190602001906140d89291906146b9565b506101008201518160080160006101000a81548160ff02191690831515021790555090505050505050505050565b61410f33613a5d565b61411857600080fd5b6001600e600083815260200190815260200160002060080160156101000a81548160ff02191690831515021790555050565b600061415533613a5d565b61415e57600080fd5b60001515600f600085815260200190815260200160002060040160019054906101000a900460ff161515141561419757600090506146b3565b6004600081548092919060010191905055506004600f600085815260200190815260200160002060040160006101000a81548160ff021916908360048111156141dc57fe5b0217905550600d6000600f600086815260200190815260200160002060020160009054906101000a900473ffffffffffffffffffffffffffffffffffffffff1673ffffffffffffffffffffffffffffffffffffffff1673ffffffffffffffffffffffffffffffffffffffff168152602001908152602001600020600f60008581526020019081526020016000206003015490806001815401808255809150506001900390600052602060002001600090919091909150556000600d6000600f600087815260200190815260200160002060010160009054906101000a900473ffffffffffffffffffffffffffffffffffffffff1673ffffffffffffffffffffffffffffffffffffffff1673ffffffffffffffffffffffffffffffffffffffff16815260200190815260200160002080549050905060005b8181101561458557600f600086815260200190815260200160002060030154600d6000600f600089815260200190815260200160002060010160009054906101000a900473ffffffffffffffffffffffffffffffffffffffff1673ffffffffffffffffffffffffffffffffffffffff1673ffffffffffffffffffffffffffffffffffffffff16815260200190815260200160002082815481106143b257fe5b9060005260206000200154141561457857600d6000600f600088815260200190815260200160002060010160009054906101000a900473ffffffffffffffffffffffffffffffffffffffff1673ffffffffffffffffffffffffffffffffffffffff1673ffffffffffffffffffffffffffffffffffffffff168152602001908152602001600020600183038154811061444657fe5b9060005260206000200154600d6000600f600089815260200190815260200160002060010160009054906101000a900473ffffffffffffffffffffffffffffffffffffffff1673ffffffffffffffffffffffffffffffffffffffff1673ffffffffffffffffffffffffffffffffffffffff16815260200190815260200160002082815481106144d157fe5b9060005260206000200181905550600d6000600f600088815260200190815260200160002060010160009054906101000a900473ffffffffffffffffffffffffffffffffffffffff1673ffffffffffffffffffffffffffffffffffffffff1673ffffffffffffffffffffffffffffffffffffffff16815260200190815260200160002080548061455d57fe5b60019003818190600052602060002001600090559055614585565b8080600101915050614313565b5082600e6000600f600088815260200190815260200160002060030154815260200190815260200160002060070190805190602001906145c69291906146b9565b506000600e6000600f600088815260200190815260200160002060030154815260200190815260200160002060080160006101000a81548160ff021916908315150217905550600f600085815260200190815260200160002060020160009054906101000a900473ffffffffffffffffffffffffffffffffffffffff16600e6000600f600088815260200190815260200160002060030154815260200190815260200160002060080160016101000a81548173ffffffffffffffffffffffffffffffffffffffff021916908373ffffffffffffffffffffffffffffffffffffffff16021790555060019150505b92915050565b828054600181600116156101000203166002900490600052602060002090601f016020900481019282601f106146fa57805160ff1916838001178555614728565b82800160010185558215614728579182015b8281111561472757825182559160200191906001019061470c565b5b5090506147359190614739565b5090565b5b8082111561475257600081600090555060010161473a565b509056fea2646970667358221220fe636ceb25a90a30535c6a61b37d57ecb59f2c7d9348fa33c39ecdf8e5ad703d64736f6c634300060c0033",
  "immutableReferences": {},
  "source": "// SPDX-License-Identifier: MIT\npragma solidity ^0.6.0;\n\ncontract Land {\n    address contractOwner;\n\n    constructor() public{\n        contractOwner = msg.sender;\n    }\n\n    struct Landreg {\n        uint id;\n        uint area;\n        string landAddress;\n        uint landPrice;\n        string allLatitudeLongitude;\n        //string allLongitude;\n        uint propertyPID;\n        string physicalSurveyNumber;\n        string document;\n        bool isforSell;\n        address payable ownerAddress;\n        bool isLandVerified;\n    }\n\n    struct User{\n        address id;\n        string name;\n        uint age;\n        string city;\n        string aadharNumber;\n        string panNumber;\n        string document;\n        string email;\n        bool isUserVerified;\n    }\n\n    struct LandInspector {\n        uint id;\n        address _addr;\n        string name;\n        uint age;\n        string designation;\n        string city;\n    }\n\n    struct LandRequest{\n        uint reqId;\n        address payable sellerId;\n        address payable buyerId;\n        uint landId;\n        reqStatus requestStatus;\n        bool isPaymentDone;\n    }\n    enum reqStatus {requested,accepted,rejected,paymentdone,commpleted}\n\n\n    uint inspectorsCount;\n    uint public userCount;\n    uint public landsCount;\n    uint public documentId;\n    uint requestCount;\n\n\n    mapping(address => LandInspector) public InspectorMapping;\n    mapping(uint => address[]) allLandInspectorList;\n    mapping(address => bool)  RegisteredInspectorMapping;\n    mapping(address => User) public UserMapping;\n    mapping(uint => address)  AllUsers;\n    mapping(uint => address[])  allUsersList;\n    mapping(address => bool)  RegisteredUserMapping;\n    mapping(address => uint[])  MyLands;\n    mapping(uint => Landreg) public lands;\n    mapping(uint => LandRequest) public LandRequestMapping;\n    mapping(address => uint[])  MyReceivedLandRequest;\n    mapping(address => uint[])  MySentLandRequest;\n    mapping(uint => uint[])  allLandList;\n    mapping(uint => uint[])  paymentDoneList;\n\n\n    function isContractOwner(address _addr) public view returns(bool){\n        if(_addr==contractOwner)\n            return true;\n        else\n            return false;\n    }\n\n    function changeContractOwner(address _addr)public {\n        require(msg.sender==contractOwner,\"you are not contractOwner\");\n\n        contractOwner=_addr;\n    }\n\n    //-----------------------------------------------LandInspector-----------------------------------------------\n\n    function addLandInspector(address _addr,string memory _name, uint _age, string memory _designation,string memory _city) public returns(bool){\n        if(contractOwner!=msg.sender)\n            return false;\n        require(contractOwner==msg.sender);\n        RegisteredInspectorMapping[_addr]=true;\n        allLandInspectorList[1].push(_addr);\n        InspectorMapping[_addr] = LandInspector(inspectorsCount,_addr,_name, _age, _designation,_city);\n        return true;\n    }\n\n    function ReturnAllLandIncpectorList() public view returns(address[] memory)\n    {\n        return allLandInspectorList[1];\n    }\n\n    function removeLandInspector(address _addr) public{\n        require(msg.sender==contractOwner,\"You are not contractOwner\");\n        require(RegisteredInspectorMapping[_addr],\"Land Inspector not found\");\n        RegisteredInspectorMapping[_addr]=false;\n\n\n        uint len=allLandInspectorList[1].length;\n        for(uint i=0;i<len;i++)\n        {\n            if(allLandInspectorList[1][i]==_addr)\n            {\n                allLandInspectorList[1][i]=allLandInspectorList[1][len-1];\n                allLandInspectorList[1].pop();\n                break;\n            }\n        }\n    }\n\n    function isLandInspector(address _id) public view returns (bool) {\n        if(RegisteredInspectorMapping[_id]){\n            return true;\n        }else{\n            return false;\n        }\n    }\n\n\n\n    //-----------------------------------------------User-----------------------------------------------\n\n    function isUserRegistered(address _addr) public view returns(bool)\n    {\n        if(RegisteredUserMapping[_addr]){\n            return true;\n        }else{\n            return false;\n        }\n    }\n\n    function registerUser(string memory _name, uint _age, string memory _city,string memory _aadharNumber, string memory _panNumber, string memory _document, string memory _email\n    ) public {\n\n        require(!RegisteredUserMapping[msg.sender]);\n\n        RegisteredUserMapping[msg.sender] = true;\n        userCount++;\n        allUsersList[1].push(msg.sender);\n        AllUsers[userCount]=msg.sender;\n        UserMapping[msg.sender] = User(msg.sender, _name, _age, _city,_aadharNumber,_panNumber, _document,_email,false);\n        //emit Registration(msg.sender);\n    }\n\n    function verifyUser(address _userId) public{\n        require(isLandInspector(msg.sender));\n        UserMapping[_userId].isUserVerified=true;\n    }\n    function isUserVerified(address id) public view returns(bool){\n        return UserMapping[id].isUserVerified;\n    }\n    function ReturnAllUserList() public view returns(address[] memory)\n    {\n        return allUsersList[1];\n    }\n\n\n    //-----------------------------------------------Land-----------------------------------------------\n    function addLand(uint _area, string memory _address, uint landPrice,string memory _allLatiLongi, uint _propertyPID,string memory _surveyNum, string memory _document) public {\n        require(isUserVerified(msg.sender));\n        landsCount++;\n        lands[landsCount] = Landreg(landsCount, _area, _address, landPrice,_allLatiLongi,_propertyPID, _surveyNum , _document,false,msg.sender,false);\n        MyLands[msg.sender].push(landsCount);\n        allLandList[1].push(landsCount);\n        // emit AddingLand(landsCount);\n    }\n\n    function ReturnAllLandList() public view returns(uint[] memory)\n    {\n        return allLandList[1];\n    }\n\n    function verifyLand(uint _id) public{\n        require(isLandInspector(msg.sender));\n        lands[_id].isLandVerified=true;\n    }\n    function isLandVerified(uint id) public view returns(bool){\n        return lands[id].isLandVerified;\n    }\n\n    function myAllLands(address id) public view returns( uint[] memory){\n        return MyLands[id];\n    }\n\n\n    function makeItforSell(uint id) public{\n        require(lands[id].ownerAddress==msg.sender);\n        lands[id].isforSell=true;\n    }\n\n    function requestforBuy(uint _landId) public\n    {\n        require(isUserVerified(msg.sender) && isLandVerified(_landId));\n        requestCount++;\n        LandRequestMapping[requestCount]=LandRequest(requestCount,lands[_landId].ownerAddress,msg.sender,_landId,reqStatus.requested,false);\n        MyReceivedLandRequest[lands[_landId].ownerAddress].push(requestCount);\n        MySentLandRequest[msg.sender].push(requestCount);\n    }\n\n    function myReceivedLandRequests() public view returns(uint[] memory)\n    {\n        return MyReceivedLandRequest[msg.sender];\n    }\n    function mySentLandRequests() public view returns(uint[] memory)\n    {\n        return MySentLandRequest[msg.sender];\n    }\n    function acceptRequest(uint _requestId) public\n    {\n        require(LandRequestMapping[_requestId].sellerId==msg.sender);\n        LandRequestMapping[_requestId].requestStatus=reqStatus.accepted;\n    }\n    function rejectRequest(uint _requestId) public\n    {\n        require(LandRequestMapping[_requestId].sellerId==msg.sender);\n        LandRequestMapping[_requestId].requestStatus=reqStatus.rejected;\n    }\n\n    function requesteStatus(uint id) public view returns(bool)\n    {\n        return LandRequestMapping[id].isPaymentDone;\n    }\n\n    function landPrice(uint id) public view returns(uint)\n    {\n        return lands[id].landPrice;\n    }\n    function propertytax(uint id) public view returns(uint)\n    {\n        return lands[id].landPrice * 1/5; // Change this line\n    }\n    function makePayment(uint _requestId) public payable\n    {\n        require(LandRequestMapping[_requestId].buyerId==msg.sender && LandRequestMapping[_requestId].requestStatus==reqStatus.accepted);\n\n        LandRequestMapping[_requestId].requestStatus=reqStatus.paymentdone;\n        //LandRequestMapping[_requestId].sellerId.transfer(lands[LandRequestMapping[_requestId].landId].landPrice);\n        //lands[LandRequestMapping[_requestId].landId].ownerAddress.transfer(lands[LandRequestMapping[_requestId].landId].landPrice);\n        lands[LandRequestMapping[_requestId].landId].ownerAddress.transfer(msg.value);\n        LandRequestMapping[_requestId].isPaymentDone=true;\n        paymentDoneList[1].push(_requestId);\n    }\n\n    function returnPaymentDoneList() public view returns(uint[] memory)\n    {\n        return paymentDoneList[1];\n    }\n\n    function transferOwnership(uint _requestId,string memory documentUrl) public returns(bool)\n    {\n        require(isLandInspector(msg.sender));\n        if(LandRequestMapping[_requestId].isPaymentDone==false)\n            return false;\n        documentId++;\n        LandRequestMapping[_requestId].requestStatus=reqStatus.commpleted;\n        MyLands[LandRequestMapping[_requestId].buyerId].push(LandRequestMapping[_requestId].landId);\n\n        uint len=MyLands[LandRequestMapping[_requestId].sellerId].length;\n        for(uint i=0;i<len;i++)\n        {\n            if(MyLands[LandRequestMapping[_requestId].sellerId][i]==LandRequestMapping[_requestId].landId)\n            {\n                MyLands[LandRequestMapping[_requestId].sellerId][i]=MyLands[LandRequestMapping[_requestId].sellerId][len-1];\n                //MyLands[LandRequestMapping[_requestId].sellerId].length--;\n                MyLands[LandRequestMapping[_requestId].sellerId].pop();\n                break;\n            }\n        }\n        lands[LandRequestMapping[_requestId].landId].document=documentUrl;\n        lands[LandRequestMapping[_requestId].landId].isforSell=false;\n        lands[LandRequestMapping[_requestId].landId].ownerAddress=LandRequestMapping[_requestId].buyerId;\n        return true;\n    }\n    function makePaymentTestFun(address payable _reveiver) public payable\n    {\n        _reveiver.transfer(msg.value);\n    }\n}",
  "sourcePath": "C:\\Users\\91996\\Downloads\\Land-Registry-master\\Land-Registry-master\\contracts\\landContrat.sol",
  "compiler": {
    "name": "solc",
    "version": "0.6.12+commit.27d51765.Emscripten.clang"
  },
  "schemaVersion": "3.4.4",
  "updatedAt": "2024-03-03T06:32:06.536Z",
  "networkType": "ethereum",
  "devdoc": {
    "kind": "dev",
    "methods": {},
    "version": 1
  },
  "userdoc": {
    "kind": "user",
    "methods": {},
    "version": 1
  }
}